{
  "_format": "hh-sol-artifact-1",
  "contractName": "BuyMeACoffee",
  "sourceName": "contracts/BuyMeACoffee/BuyMeACoffee.sol",
  "abi": [
    {
      "inputs": [],
      "stateMutability": "nonpayable",
      "type": "constructor"
    },
    {
      "anonymous": false,
      "inputs": [
        {
          "indexed": true,
          "internalType": "address",
          "name": "from",
          "type": "address"
        },
        {
          "indexed": false,
          "internalType": "uint256",
          "name": "timestamp",
          "type": "uint256"
        },
        {
          "indexed": false,
          "internalType": "string",
          "name": "name",
          "type": "string"
        },
        {
          "indexed": false,
          "internalType": "string",
          "name": "message",
          "type": "string"
        }
      ],
      "name": "NewMemo",
      "type": "event"
    },
    {
      "inputs": [
        {
          "internalType": "string",
          "name": "name",
          "type": "string"
        },
        {
          "internalType": "string",
          "name": "message",
          "type": "string"
        }
      ],
      "name": "buyCoffee",
      "outputs": [],
      "stateMutability": "payable",
      "type": "function"
    },
    {
      "inputs": [],
      "name": "getMemos",
      "outputs": [
        {
          "components": [
            {
              "internalType": "address",
              "name": "from",
              "type": "address"
            },
            {
              "internalType": "uint256",
              "name": "timestamp",
              "type": "uint256"
            },
            {
              "internalType": "string",
              "name": "name",
              "type": "string"
            },
            {
              "internalType": "string",
              "name": "message",
              "type": "string"
            }
          ],
          "internalType": "struct BuyMeACoffee.Memo[]",
          "name": "",
          "type": "tuple[]"
        }
      ],
      "stateMutability": "view",
      "type": "function"
    },
    {
      "inputs": [],
      "name": "withdrawTips",
      "outputs": [],
      "stateMutability": "nonpayable",
      "type": "function"
    }
  ],
  "bytecode": "0x608060405234801561001057600080fd5b5033600160006101000a81548173ffffffffffffffffffffffffffffffffffffffff021916908373ffffffffffffffffffffffffffffffffffffffff160217905550610d69806100616000396000f3fe6080604052600436106100345760003560e01c8063204206e1146100395780633aaa74b214610055578063865c51721461006c575b600080fd5b610053600480360381019061004e9190610640565b610097565b005b34801561006157600080fd5b5061006a610211565b005b34801561007857600080fd5b50610081610303565b60405161008e91906108bd565b60405180910390f35b600034036100da576040517f08c379a00000000000000000000000000000000000000000000000000000000081526004016100d19061093c565b60405180910390fd5b600060405180608001604052803373ffffffffffffffffffffffffffffffffffffffff16815260200142815260200184815260200183815250908060018154018082558091505060019003906000526020600020906004020160009091909190915060008201518160000160006101000a81548173ffffffffffffffffffffffffffffffffffffffff021916908373ffffffffffffffffffffffffffffffffffffffff1602179055506020820151816001015560408201518160020190816101a29190610b68565b5060608201518160030190816101b89190610b68565b5050503373ffffffffffffffffffffffffffffffffffffffff167fc56140e05f516509ae28110e0f72e17558a7561630dad2647c3ae87d986e365c42848460405161020593929190610c82565b60405180910390a25050565b600160009054906101000a900473ffffffffffffffffffffffffffffffffffffffff1673ffffffffffffffffffffffffffffffffffffffff163373ffffffffffffffffffffffffffffffffffffffff16146102a1576040517f08c379a000000000000000000000000000000000000000000000000000000000815260040161029890610d13565b60405180910390fd5b600160009054906101000a900473ffffffffffffffffffffffffffffffffffffffff1673ffffffffffffffffffffffffffffffffffffffff166108fc479081150290604051600060405180830381858888f1935050505061030157600080fd5b565b60606000805480602002602001604051908101604052809291908181526020016000905b828210156104dd57838290600052602060002090600402016040518060800160405290816000820160009054906101000a900473ffffffffffffffffffffffffffffffffffffffff1673ffffffffffffffffffffffffffffffffffffffff1673ffffffffffffffffffffffffffffffffffffffff168152602001600182015481526020016002820180546103ba9061098b565b80601f01602080910402602001604051908101604052809291908181526020018280546103e69061098b565b80156104335780601f1061040857610100808354040283529160200191610433565b820191906000526020600020905b81548152906001019060200180831161041657829003601f168201915b5050505050815260200160038201805461044c9061098b565b80601f01602080910402602001604051908101604052809291908181526020018280546104789061098b565b80156104c55780601f1061049a576101008083540402835291602001916104c5565b820191906000526020600020905b8154815290600101906020018083116104a857829003601f168201915b50505050508152505081526020019060010190610327565b50505050905090565b6000604051905090565b600080fd5b600080fd5b600080fd5b600080fd5b6000601f19601f8301169050919050565b7f4e487b7100000000000000000000000000000000000000000000000000000000600052604160045260246000fd5b61054d82610504565b810181811067ffffffffffffffff8211171561056c5761056b610515565b5b80604052505050565b600061057f6104e6565b905061058b8282610544565b919050565b600067ffffffffffffffff8211156105ab576105aa610515565b5b6105b482610504565b9050602081019050919050565b82818337600083830152505050565b60006105e36105de84610590565b610575565b9050828152602081018484840111156105ff576105fe6104ff565b5b61060a8482856105c1565b509392505050565b600082601f830112610627576106266104fa565b5b81356106378482602086016105d0565b91505092915050565b60008060408385031215610657576106566104f0565b5b600083013567ffffffffffffffff811115610675576106746104f5565b5b61068185828601610612565b925050602083013567ffffffffffffffff8111156106a2576106a16104f5565b5b6106ae85828601610612565b9150509250929050565b600081519050919050565b600082825260208201905092915050565b6000819050602082019050919050565b600073ffffffffffffffffffffffffffffffffffffffff82169050919050565b600061070f826106e4565b9050919050565b61071f81610704565b82525050565b6000819050919050565b61073881610725565b82525050565b600081519050919050565b600082825260208201905092915050565b60005b8381101561077857808201518184015260208101905061075d565b60008484015250505050565b600061078f8261073e565b6107998185610749565b93506107a981856020860161075a565b6107b281610504565b840191505092915050565b60006080830160008301516107d56000860182610716565b5060208301516107e8602086018261072f565b50604083015184820360408601526108008282610784565b9150506060830151848203606086015261081a8282610784565b9150508091505092915050565b600061083383836107bd565b905092915050565b6000602082019050919050565b6000610853826106b8565b61085d81856106c3565b93508360208202850161086f856106d4565b8060005b858110156108ab578484038952815161088c8582610827565b94506108978361083b565b925060208a01995050600181019050610873565b50829750879550505050505092915050565b600060208201905081810360008301526108d78184610848565b905092915050565b600082825260208201905092915050565b7f53686f756c642062652076616c75650000000000000000000000000000000000600082015250565b6000610926600f836108df565b9150610931826108f0565b602082019050919050565b6000602082019050818103600083015261095581610919565b9050919050565b7f4e487b7100000000000000000000000000000000000000000000000000000000600052602260045260246000fd5b600060028204905060018216806109a357607f821691505b6020821081036109b6576109b561095c565b5b50919050565b60008190508160005260206000209050919050565b60006020601f8301049050919050565b600082821b905092915050565b600060088302610a1e7fffffffffffffffffffffffffffffffffffffffffffffffffffffffffffffffff826109e1565b610a2886836109e1565b95508019841693508086168417925050509392505050565b6000819050919050565b6000610a65610a60610a5b84610725565b610a40565b610725565b9050919050565b6000819050919050565b610a7f83610a4a565b610a93610a8b82610a6c565b8484546109ee565b825550505050565b600090565b610aa8610a9b565b610ab3818484610a76565b505050565b5b81811015610ad757610acc600082610aa0565b600181019050610ab9565b5050565b601f821115610b1c57610aed816109bc565b610af6846109d1565b81016020851015610b05578190505b610b19610b11856109d1565b830182610ab8565b50505b505050565b600082821c905092915050565b6000610b3f60001984600802610b21565b1980831691505092915050565b6000610b588383610b2e565b9150826002028217905092915050565b610b718261073e565b67ffffffffffffffff811115610b8a57610b89610515565b5b610b94825461098b565b610b9f828285610adb565b600060209050601f831160018114610bd25760008415610bc0578287015190505b610bca8582610b4c565b865550610c32565b601f198416610be0866109bc565b60005b82811015610c0857848901518255600182019150602085019450602081019050610be3565b86831015610c255784890151610c21601f891682610b2e565b8355505b6001600288020188555050505b505050505050565b610c4381610725565b82525050565b6000610c548261073e565b610c5e81856108df565b9350610c6e81856020860161075a565b610c7781610504565b840191505092915050565b6000606082019050610c976000830186610c3a565b8181036020830152610ca98185610c49565b90508181036040830152610cbd8184610c49565b9050949350505050565b7f4e6f206f776e6572000000000000000000000000000000000000000000000000600082015250565b6000610cfd6008836108df565b9150610d0882610cc7565b602082019050919050565b60006020820190508181036000830152610d2c81610cf0565b905091905056fea2646970667358221220619137e3d1fdcd84bf767ff162603d051194588bf15a431e3d97076967ef276d64736f6c63430008110033",
  "linkReferences": {},
  "deployedLinkReferences": {}
}